{
  "contractName": "WCHI",
  "abi": [
    {
      "inputs": [],
      "stateMutability": "nonpayable",
      "type": "constructor"
    },
    {
      "anonymous": false,
      "inputs": [
        {
          "indexed": true,
          "internalType": "address",
          "name": "owner",
          "type": "address"
        },
        {
          "indexed": true,
          "internalType": "address",
          "name": "spender",
          "type": "address"
        },
        {
          "indexed": false,
          "internalType": "uint256",
          "name": "value",
          "type": "uint256"
        }
      ],
      "name": "Approval",
      "type": "event"
    },
    {
      "anonymous": false,
      "inputs": [
        {
          "indexed": true,
          "internalType": "address",
          "name": "from",
          "type": "address"
        },
        {
          "indexed": true,
          "internalType": "address",
          "name": "to",
          "type": "address"
        },
        {
          "indexed": false,
          "internalType": "uint256",
          "name": "value",
          "type": "uint256"
        }
      ],
      "name": "Transfer",
      "type": "event"
    },
    {
      "inputs": [
        {
          "internalType": "address",
          "name": "",
          "type": "address"
        },
        {
          "internalType": "address",
          "name": "",
          "type": "address"
        }
      ],
      "name": "allowance",
      "outputs": [
        {
          "internalType": "uint256",
          "name": "",
          "type": "uint256"
        }
      ],
      "stateMutability": "view",
      "type": "function",
      "constant": true
    },
    {
      "inputs": [
        {
          "internalType": "address",
          "name": "",
          "type": "address"
        }
      ],
      "name": "balanceOf",
      "outputs": [
        {
          "internalType": "uint256",
          "name": "",
          "type": "uint256"
        }
      ],
      "stateMutability": "view",
      "type": "function",
      "constant": true
    },
    {
      "inputs": [],
      "name": "decimals",
      "outputs": [
        {
          "internalType": "uint8",
          "name": "",
          "type": "uint8"
        }
      ],
      "stateMutability": "view",
      "type": "function",
      "constant": true
    },
    {
      "inputs": [],
      "name": "name",
      "outputs": [
        {
          "internalType": "string",
          "name": "",
          "type": "string"
        }
      ],
      "stateMutability": "view",
      "type": "function",
      "constant": true
    },
    {
      "inputs": [],
      "name": "symbol",
      "outputs": [
        {
          "internalType": "string",
          "name": "",
          "type": "string"
        }
      ],
      "stateMutability": "view",
      "type": "function",
      "constant": true
    },
    {
      "inputs": [],
      "name": "totalSupply",
      "outputs": [
        {
          "internalType": "uint256",
          "name": "",
          "type": "uint256"
        }
      ],
      "stateMutability": "view",
      "type": "function",
      "constant": true
    },
    {
      "inputs": [
        {
          "internalType": "address",
          "name": "spender",
          "type": "address"
        },
        {
          "internalType": "uint256",
          "name": "value",
          "type": "uint256"
        }
      ],
      "name": "approve",
      "outputs": [
        {
          "internalType": "bool",
          "name": "",
          "type": "bool"
        }
      ],
      "stateMutability": "nonpayable",
      "type": "function"
    },
    {
      "inputs": [
        {
          "internalType": "address",
          "name": "to",
          "type": "address"
        },
        {
          "internalType": "uint256",
          "name": "value",
          "type": "uint256"
        }
      ],
      "name": "transfer",
      "outputs": [
        {
          "internalType": "bool",
          "name": "",
          "type": "bool"
        }
      ],
      "stateMutability": "nonpayable",
      "type": "function"
    },
    {
      "inputs": [
        {
          "internalType": "address",
          "name": "from",
          "type": "address"
        },
        {
          "internalType": "address",
          "name": "to",
          "type": "address"
        },
        {
          "internalType": "uint256",
          "name": "value",
          "type": "uint256"
        }
      ],
      "name": "transferFrom",
      "outputs": [
        {
          "internalType": "bool",
          "name": "",
          "type": "bool"
        }
      ],
      "stateMutability": "nonpayable",
      "type": "function"
    },
    {
      "inputs": [
        {
          "internalType": "uint256",
          "name": "value",
          "type": "uint256"
        }
      ],
      "name": "burn",
      "outputs": [],
      "stateMutability": "nonpayable",
      "type": "function"
    },
    {
      "inputs": [
        {
          "internalType": "address",
          "name": "spender",
          "type": "address"
        },
        {
          "internalType": "uint256",
          "name": "addedValue",
          "type": "uint256"
        }
      ],
      "name": "increaseAllowance",
      "outputs": [
        {
          "internalType": "bool",
          "name": "",
          "type": "bool"
        }
      ],
      "stateMutability": "nonpayable",
      "type": "function"
    },
    {
      "inputs": [
        {
          "internalType": "address",
          "name": "spender",
          "type": "address"
        },
        {
          "internalType": "uint256",
          "name": "removedValue",
          "type": "uint256"
        }
      ],
      "name": "decreaseAllowance",
      "outputs": [
        {
          "internalType": "bool",
          "name": "",
          "type": "bool"
        }
      ],
      "stateMutability": "nonpayable",
      "type": "function"
    }
  ],
  "bytecode": "0x608060405234801561001057600080fd5b50661bb60f053f800060008181553380825260016020908152604080842085905580519485525191937fddf252ad1be2c89b69c2b068fc378daa952ba7f163c4a11628f55a4df523b3ef929081900390910190a361099a806100736000396000f3fe608060405234801561001057600080fd5b50600436106100d45760003560e01c806342966c6811610081578063a457c2d71161005b578063a457c2d7146102b1578063a9059cbb146102ea578063dd62ed3e14610323576100d4565b806342966c681461025757806370a082311461027657806395d89b41146102a9576100d4565b806323b872dd116100b257806323b872dd146101bd578063313ce56714610200578063395093511461021e576100d4565b806306fdde03146100d9578063095ea7b31461015657806318160ddd146101a3575b600080fd5b6100e161035e565b6040805160208082528351818301528351919283929083019185019080838360005b8381101561011b578181015183820152602001610103565b50505050905090810190601f1680156101485780820380516001836020036101000a031916815260200191505b509250505060405180910390f35b61018f6004803603604081101561016c57600080fd5b5073ffffffffffffffffffffffffffffffffffffffff8135169060200135610397565b604080519115158252519081900360200190f35b6101ab6103ad565b60408051918252519081900360200190f35b61018f600480360360608110156101d357600080fd5b5073ffffffffffffffffffffffffffffffffffffffff8135811691602081013590911690604001356103b3565b6102086104c0565b6040805160ff9092168252519081900360200190f35b61018f6004803603604081101561023457600080fd5b5073ffffffffffffffffffffffffffffffffffffffff81351690602001356104c5565b6102746004803603602081101561026d57600080fd5b5035610568565b005b6101ab6004803603602081101561028c57600080fd5b503573ffffffffffffffffffffffffffffffffffffffff166105c0565b6100e16105d2565b61018f600480360360408110156102c757600080fd5b5073ffffffffffffffffffffffffffffffffffffffff813516906020013561060b565b61018f6004803603604081101561030057600080fd5b5073ffffffffffffffffffffffffffffffffffffffff8135169060200135610661565b6101ab6004803603604081101561033957600080fd5b5073ffffffffffffffffffffffffffffffffffffffff8135811691602001351661066e565b6040518060400160405280600b81526020017f577261707065642043484900000000000000000000000000000000000000000081525081565b60006103a433848461068b565b50600192915050565b60005481565b600073ffffffffffffffffffffffffffffffffffffffff841633146104ab5773ffffffffffffffffffffffffffffffffffffffff841660009081526002602090815260408083203384529091529020547fffffffffffffffffffffffffffffffffffffffffffffffffffffffffffffffff81146104a9578281101561049957604080517f08c379a000000000000000000000000000000000000000000000000000000000815260206004820152601860248201527f574348493a20616c6c6f77616e63652065786365656465640000000000000000604482015290519081900360640190fd5b8281036104a786338361068b565b505b505b6104b68484846106fa565b5060019392505050565b600881565b33600090815260026020908152604080832073ffffffffffffffffffffffffffffffffffffffff861684529091528120548019808410610550576040517f08c379a00000000000000000000000000000000000000000000000000000000081526004018080602001828103825260218152602001806109446021913960400191505060405180910390fd5b61055d338686850161068b565b506001949350505050565b6105723382610860565b80600054101561057e57fe5b60008054829003815560408051838152905133917fddf252ad1be2c89b69c2b068fc378daa952ba7f163c4a11628f55a4df523b3ef919081900360200190a350565b60016020526000908152604090205481565b6040518060400160405280600481526020017f574348490000000000000000000000000000000000000000000000000000000081525081565b33600090815260026020908152604080832073ffffffffffffffffffffffffffffffffffffffff861684529091528120548083106106545761064f3385600061068b565b6104b6565b6104b6338585840361068b565b60006103a43384846106fa565b600260209081526000928352604080842090915290825290205481565b73ffffffffffffffffffffffffffffffffffffffff808416600081815260026020908152604080832094871680845294825291829020859055815185815291517f8c5be1e5ebec7d5bd14f71427d1e84f3dd0314c0f7b2291e5b200ac8c7c3b9259281900390910190a3505050565b73ffffffffffffffffffffffffffffffffffffffff821661077c57604080517f08c379a000000000000000000000000000000000000000000000000000000000815260206004820152601e60248201527f574348493a207472616e7366657220746f207a65726f20616464726573730000604482015290519081900360640190fd5b73ffffffffffffffffffffffffffffffffffffffff82163014156107eb576040517f08c379a00000000000000000000000000000000000000000000000000000000081526004018080602001828103825260228152602001806109226022913960400191505060405180910390fd5b6107f58382610860565b73ffffffffffffffffffffffffffffffffffffffff8083166000818152600160209081526040918290208054860190558151858152915192938716927fddf252ad1be2c89b69c2b068fc378daa952ba7f163c4a11628f55a4df523b3ef9281900390910190a3505050565b73ffffffffffffffffffffffffffffffffffffffff8216600090815260016020526040902054818110156108f557604080517f08c379a000000000000000000000000000000000000000000000000000000000815260206004820152601a60248201527f574348493a20696e73756666696369656e742062616c616e6365000000000000604482015290519081900360640190fd5b73ffffffffffffffffffffffffffffffffffffffff90921660009081526001602052604090209103905556fe574348493a207472616e7366657220746f20636f6e74726163742061646472657373574348493a20696e63726561736520616c6c6f77616e6365206f766572666c6f77a26469706673582212205670d98d317cd3c17b8cba3f44e842857776337c386d585ac06c19e20228c0fd64736f6c63430007060033",
  "immutableReferences": {},
  "source": "// SPDX-License-Identifier: MIT\n// Copyright (C) 2021 Autonomous Worlds Ltd\n\npragma solidity ^0.7.6;\n\nimport \"./IWCHI.sol\";\n\n/**\n * @dev Wrapped CHI (WCHI) token.  This contract is not upgradable and not\n * owned, but it grants an initial supply to the contract creator.  The Xaya\n * team will hold these tokens, and give them out for CHI locked on the\n * Xaya network.  When WCHI tokens are returned, those CHI will be released\n * again.\n */\ncontract WCHI is IWCHI\n{\n\n  string public constant name = \"Wrapped CHI\";\n  string public constant symbol = \"WCHI\";\n\n  /** @dev Native CHI has 8 decimals (like BTC), we mimic that here.  */\n  uint8 public constant decimals = 8;\n\n  /**\n   * @dev Initial supply of tokens minted.  This is a bit larger than the\n   * real total supply of CHI.\n   */\n  uint256 internal constant initialSupply = 78 * 10**6 * 10**decimals;\n\n  /**\n   * @dev Total supply of tokens.  This includes tokens that are in the\n   * Xaya team's reserve, i.e. do not correspond to real CHI locked\n   * in the treasury.\n   */\n  uint256 public override totalSupply;\n\n  /** @dev Balances of tokens per address.  */\n  mapping (address => uint256) public override balanceOf;\n\n  /**\n   * @dev Allowances for accounts (second) to spend from the balance\n   * of an owner (first).\n   */\n  mapping (address => mapping (address => uint256)) public override allowance;\n\n  /**\n   * @dev In the constructor, we grant the contract creator the initial balance.\n   * This is the only place where any address has special rights compared\n   * to all others.\n   */\n  constructor ()\n  {\n    totalSupply = initialSupply;\n    balanceOf[msg.sender] = initialSupply;\n    emit Transfer (address (0), msg.sender, initialSupply);\n  }\n\n  /**\n   * @dev Sets the allowance afforded to the given spender by\n   * the message sender.\n   */\n  function approve (address spender, uint256 value)\n      external override returns (bool)\n  {\n    setApproval (msg.sender, spender, value);\n    return true;\n  }\n\n  /**\n   * @dev Moves a given amount of tokens from the message sender's\n   * account to the recipient.  If to is the zero address, then those\n   * tokens are burnt and reduce the total supply.\n   */\n  function transfer (address to, uint256 value) external override returns (bool)\n  {\n    uncheckedTransfer (msg.sender, to, value);\n    return true;\n  }\n\n  /**\n   * @dev Moves a given amount of tokens from the sender account to the\n   * recipient.  If from is not the message sender, then it needs to have\n   * sufficient allowance.\n   */\n  function transferFrom (address from, address to, uint256 value)\n      external override returns (bool)\n  {\n    if (from != msg.sender)\n      {\n        /* Check for the allowance and reduce it.  */\n        uint256 allowed = allowance[from][msg.sender];\n        if (allowed != type (uint256).max)\n          {\n            require (allowed >= value, \"WCHI: allowance exceeded\");\n            uint256 newAllowed = allowed - value;\n            setApproval (from, msg.sender, newAllowed);\n          }\n      }\n\n    uncheckedTransfer (from, to, value);\n    return true;\n  }\n\n  /**\n   * @dev Internal transfer implementation.  This is used to implement transfer\n   * and transferFrom, and does not check that the sender is actually\n   * allowed to spend the tokens.\n   */\n  function uncheckedTransfer (address from, address to, uint256 value) internal\n  {\n    require (to != address (0), \"WCHI: transfer to zero address\");\n    require (to != address (this), \"WCHI: transfer to contract address\");\n\n    deductBalance (from, value);\n    balanceOf[to] += value;\n\n    emit Transfer (from, to, value);\n  }\n\n  /**\n   * @dev Burns tokens from the sender's balance, reducing total supply.\n   */\n  function burn (uint256 value) external override\n  {\n    deductBalance (msg.sender, value);\n    assert (totalSupply >= value);\n    totalSupply -= value;\n    emit Transfer (msg.sender, address (0), value);\n  }\n\n  /**\n   * @dev Increases the allowance of a given spender by a certain\n   * amount (rather than explicitly setting the new allowance).  This fails\n   * if the new allowance would be at infinity (or overflow).\n   */\n  function increaseAllowance (address spender, uint256 addedValue)\n      external override returns (bool)\n  {\n    uint256 allowed = allowance[msg.sender][spender];\n\n    uint256 increaseToInfinity = type (uint256).max - allowed;\n    require (addedValue < increaseToInfinity,\n             \"WCHI: increase allowance overflow\");\n\n    setApproval (msg.sender, spender, allowed + addedValue);\n    return true;\n  }\n\n  /**\n   * @dev Decreases the allowance of a given spender by a certain value.\n   * If the value is more than the current allowance, it is set to zero.\n   */\n  function decreaseAllowance (address spender, uint256 removedValue)\n      external override returns (bool)\n  {\n    uint256 allowed = allowance[msg.sender][spender];\n\n    if (removedValue >= allowed)\n      setApproval (msg.sender, spender, 0);\n    else\n      setApproval (msg.sender, spender, allowed - removedValue);\n\n    return true;\n  }\n\n  /**\n   * @dev Internal helper function to check the balance of the given user\n   * and deduct the given amount.\n   */\n  function deductBalance (address from, uint256 value) internal\n  {\n    uint256 balance = balanceOf[from];\n    require (balance >= value, \"WCHI: insufficient balance\");\n    balanceOf[from] = balance - value;\n  }\n\n  /**\n   * @dev Internal helper function to explicitly set the allowance of\n   * a spender without any checks, and emit the Approval event.\n   */\n  function setApproval (address owner, address spender, uint256 value) internal\n  {\n    allowance[owner][spender] = value;\n    emit Approval (owner, spender, value);\n  }\n\n}\n",
  "sourcePath": "/home/daniel/Projekte/wchi/contracts/WCHI.sol",
  "compiler": {
    "name": "solc",
    "version": "0.7.6+commit.7338295f.Emscripten.clang"
  },
  "schemaVersion": "3.3.4",
  "updatedAt": "2021-04-01T12:18:33.113Z",
  "networkType": "ethereum",
  "devdoc": {
    "details": "Wrapped CHI (WCHI) token.  This contract is not upgradable and not owned, but it grants an initial supply to the contract creator.  The Xaya team will hold these tokens, and give them out for CHI locked on the Xaya network.  When WCHI tokens are returned, those CHI will be released again.",
    "kind": "dev",
    "methods": {
      "approve(address,uint256)": {
        "details": "Sets the allowance afforded to the given spender by the message sender."
      },
      "burn(uint256)": {
        "details": "Burns tokens from the sender's balance, reducing total supply."
      },
      "constructor": {
        "details": "In the constructor, we grant the contract creator the initial balance. This is the only place where any address has special rights compared to all others."
      },
      "decreaseAllowance(address,uint256)": {
        "details": "Decreases the allowance of a given spender by a certain value. If the value is more than the current allowance, it is set to zero."
      },
      "increaseAllowance(address,uint256)": {
        "details": "Increases the allowance of a given spender by a certain amount (rather than explicitly setting the new allowance).  This fails if the new allowance would be at infinity (or overflow)."
      },
      "transfer(address,uint256)": {
        "details": "Moves a given amount of tokens from the message sender's account to the recipient.  If to is the zero address, then those tokens are burnt and reduce the total supply."
      },
      "transferFrom(address,address,uint256)": {
        "details": "Moves a given amount of tokens from the sender account to the recipient.  If from is not the message sender, then it needs to have sufficient allowance."
      }
    },
    "stateVariables": {
      "allowance": {
        "details": "Allowances for accounts (second) to spend from the balance of an owner (first)."
      },
      "balanceOf": {
        "details": "Balances of tokens per address.  "
      },
      "decimals": {
        "details": "Native CHI has 8 decimals (like BTC), we mimic that here.  "
      },
      "initialSupply": {
        "details": "Initial supply of tokens minted.  This is a bit larger than the real total supply of CHI."
      },
      "totalSupply": {
        "details": "Total supply of tokens.  This includes tokens that are in the Xaya team's reserve, i.e. do not correspond to real CHI locked in the treasury."
      }
    },
    "version": 1
  },
  "userdoc": {
    "kind": "user",
    "methods": {},
    "version": 1
  }
}